:040000002BEF00F0F2
:060008005B82B7EF1AF065
:100018005B80D8CF01F0E8CF02F0E0CF03F0F2A484
:1000280018EF00F01AEF00F023EF00F0F2AA1FEF2C
:1000380000F021EF00F023EF00F006EC1BF003C006
:10004800E0FF02C0E8FF01C0D8FF5B90100064EF3A
:1000580016F0000E0101356F000E386F000E366F76
:10006800000E376F000E396FBCEF02F0540E0F6EA2
:10007800010E106ECCEC18F0540E156EF40E166EC0
:10008800FF0E176E010E186E010E196ECAEC15F0F0
:10009800540E156EED0E166EFF0E176E020E186ECC
:1000A800010E196ECAEC15F0540E156EB50E166ECB
:1000B800FE0E176E030E186E010E196ECAEC15F0BF
:1000C800540E156EE40E166EFF0E176E040E186EA3
:1000D800010E196ECAEC15F0540E156ED10E166E7F
:1000E800FF0E176E040E186E080E196ECAEC15F086
:1000F8007AEC1AF04F6EA5EF02F0FE0E0B6EA4EC30
:100108001AF0E9EF00F04AEC14F0540E0F6E010EED
:10011800106ECCEC18F0540E156EB30E166EFF0E62
:10012800176E010E186E010E196ECAEC15F0540EFA
:10013800156E800E166EFF0E176E020E186E010EEB
:10014800196ECAEC15F0540E156EBD0E166EFF0E24
:10015800176E030E186E010E196ECAEC15F0000E1C
:100168004D6E000E4C6E7AEC1AF0456E45504C6E92
:100178004D6AFC0E4C184D10D8A4C5EF00F0C7EF1F
:1001880000F0CDEF00F0FE0E0C6E63EC1AF0E9EF14
:1001980000F0FD0E4C184D10D8A4D5EF00F0D7EFA5
:1001A80000F0DDEF00F0FE0E0C6E4CEC1AF0E9EFFB
:1001B80000F0FE0E4C184D10D8A4E5EF00F0E7EF64
:1001C80000F0E9EF00F0BCEF02F001013851D8B4BB
:1001D800F0EF00F0F2EF00F087EF00F0BCEF02F074
:1001E800540E0F6E010E106ECCEC18F05A0E0B6EFA
:1001F8003BEC18F05AEF01F0540E156EA90E166E6E
:10020800FF0E176E010E186E010E196ECAEC15F06E
:10021800540E156E750E166EFF0E176E020E186EC2
:10022800010E196ECAEC15F0540E156EBD0E166E41
:10023800FF0E176E030E186E010E196ECAEC15F03C
:10024800000E4D6E000E4C6E7AEC1AF0456E45505D
:100258004C6E4D6AFC0E4C184D10D8A436EF01F0C8
:1002680038EF01F03EEF01F05A0E0C6E9DEC17F0DE
:100278005AEF01F0FD0E4C184D10D8A446EF01F0CE
:1002880048EF01F04EEF01F05A0E0C6ED2EC17F069
:100298005AEF01F0FE0E4C184D10D8A456EF01F09D
:1002A80058EF01F05AEF01F0BCEF02F001013851AC
:1002B800D8B461EF01F063EF01F000EF01F0BCEF9B
:1002C80002F0000E4D6E000E4C6E540E0F6E010EB5
:1002D800106ECCEC18F0540E156E250E166EFF0E2F
:1002E800176E010E186E010E196ECAEC15F0000E8D
:1002F800E1EC19F004C04CF005C04DF0F60E166E96
:10030800280E176E9C0E186E400E196E4CC004F025
:100318004DC005F0066A076A000E2AEC10F004C00A
:1003280012F005C013F006C014F007C015F0B3ECC6
:1003380007F012C03BF013C03CF014C03DF015C0EC
:100348003EF057EC13F03BC04AF03CC04BF04AC0BB
:1003580004F04BC005F0020E076E6C0E066E2DEC15
:1003680017F004C04AF005C04BF0390E366E010E86
:10037800376E4AC038F04BC039F06EEC18F0540EA6
:10038800156E390E166E010E176E010E186E100ED0
:10039800196ECAEC15F01F0E466E710E456E1E0ED4
:1003A800E82EFED7452EFCD7462EFAD700F000F0EF
:1003B800BCEF02F0540E0F6E010E106ECCEC18F06C
:1003C8007AEF02F0540E156E520E166EFF0E176E6F
:1003D800010E186E010E196ECAEC15F0540E156E4A
:1003E800440E166EFF0E176E020E186E010E196E71
:1003F800CAEC15F0540E156EBD0E166EFF0E176E74
:10040800030E186E010E196ECAEC15F0000E4D6E33
:10041800000E4C6E7AEC1AF0456E45504C6E4D6AE3
:100428009692FC0E4C184D10D8A41DEF02F01FEF49
:1004380002F040EF02F001013651D8A426EF02F095
:1004480028EF02F040EF02F08D82C80E00F000F0B5
:10045800E82EFCD78D920B0E466E260E456E5E0E6C
:10046800E82EFED7452EFCD7462EFAD7000E0101FE
:10047800376F362B7AEF02F0FD0E4C184D10D8A4CA
:1004880048EF02F04AEF02F06EEF02F00101375137
:10049800D8A451EF02F053EF02F06EEF02F08D8214
:1004A8001C0E456E440EE82EFED7452EFCD70000E4
:1004B8008D920B0E466E260E456E5E0EE82EFED70A
:1004C800452EFCD7462EFAD70101372B000E366F82
:1004D8007AEF02F0FE0E4C184D10D8A476EF02F019
:1004E80078EF02F07AEF02F0BCEF02F00101385128
:1004F800D8B481EF02F083EF02F0E6EF01F0BCEF31
:1005080002F00D0E456EFC0EE82EFED7452EFCD7E8
:10051800010E0101356FBCEF02F0540E0F6E010E93
:10052800106ECCEC18F0540E156EF50E166EFD0E0E
:10053800176E010E186E010E196ECAEC15F0BCEF9D
:1005480002F04F50FA0AD8B485EF02F0060AD8B480
:1005580081EF00F0010AD8B4F4EF00F0030AD8B430
:1005680065EF01F0010AD8B4DEEF01F091EF02F077
:1005780001013551D8B4C3EF02F0C5EF02F03AEFEC
:1005880000F01200000E0101356F000E386F000EEA
:10059800366F000E376F000E396F49EF05F0540EB5
:1005A8000F6E010E106ECCEC18F0540E156EF40E92
:1005B800166EFF0E176E010E186E010E196ECAEC3C
:1005C80015F0540E156EED0E166EFF0E176E020E18
:1005D800186E010E196ECAEC15F0540E156EB50E94
:1005E800166EFE0E176E030E186E010E196ECAEC0B
:1005F80015F0540E156EE40E166EFF0E176E040EEF
:10060800186E010E196ECAEC15F0540E156ED10E47
:10061800166EFF0E176E040E186E080E196ECAECD1
:1006280015F07AEC1AF04F6E32EF05F08AEF03F00E
:10063800540E0F6E010E106ECCEC18F0540E156EA1
:10064800B30E166EFF0E176E010E186E010E196EA0
:10065800CAEC15F0540E156E800E166EFF0E176E4E
:10066800020E186E010E196ECAEC15F0540E156EB6
:10067800BD0E166EFF0E176E030E186E010E196E64
:10068800CAEC15F0000E4D6E000E4C6E7AEC1AF0A6
:10069800456E45504C6E4D6AFC0E4C184D10D8A452
:1006A80058EF03F05AEF03F06DEF03F0610E096E97
:1006B800060EABEC16F0030E466E8C0E456EEF0E72
:1006C800E82EFED7452EFCD7462EFAD700008AEF33
:1006D80003F0FD0E4C184D10D8A475EF03F077EF1A
:1006E80003F07EEF03F0620E096E060EABEC16F017
:1006F8005FEF03F0FE0E4C184D10D8A486EF03F000
:1007080088EF03F01AEF03F049EF05F001013851C3
:10071800D8B491EF03F093EF03F01CEF03F049EF27
:1007280005F0540E0F6E010E106ECCEC18F005EFAC
:1007380004F0540E156EA90E166EFF0E176E010EFC
:10074800186E010E196ECAEC15F0540E156E750E62
:10075800166EFF0E176E020E186E010E196ECAEC99
:1007680015F0540E156EBD0E166EFF0E176E030EA5
:10077800186E010E196ECAEC15F0000E4D6E000EC3
:100788004C6E7AEC1AF0456E45504C6E4D6AFC0E74
:100798004C184D10D8A4D3EF03F0D5EF03F0E8EFD1
:1007A80003F0630E096E060EABEC16F0030E466EF0
:1007B8008C0E456EEF0EE82EFED7452EFCD7462E42
:1007C800FAD7000005EF04F0FD0E4C184D10D8A420
:1007D800F0EF03F0F2EF03F0F9EF03F0640E096EA7
:1007E800060EABEC16F0DAEF03F0FE0E4C184D10C7
:1007F800D8A401EF04F003EF04F005EF04F049EF8B
:1008080005F001013851D8B40CEF04F00EEF04F0F4
:100818009DEF03F049EF05F0000E4D6E000E4C6E93
:10082800540E0F6E010E106ECCEC18F0540E156EAF
:10083800250E166EFF0E176E010E186E010E196E3C
:10084800CAEC15F0010EE1EC19F004C04CF005C03B
:100858004DF0F60E166E280E176E9C0E186E400E92
:10086800196E4CC004F04DC005F0066A076A000E08
:100878002AEC10F004C012F005C013F006C014F002
:1008880007C015F0B3EC07F012C03BF013C03CF002
:1008980014C03DF015C03EF057EC13F03BC04AF0D1
:1008A8003CC04BF04AC004F04BC005F0020E076E86
:1008B8006C0E066E2DEC17F004C04AF005C04BF024
:1008C800390E366E010E376E4AC038F04BC039F01B
:1008D8006EEC18F0540E156E390E166E010E176E6A
:1008E800010E186E100E196ECAEC15F01F0E466E2A
:1008F800710E456E1E0EE82EFED7452EFCD7462EED
:10090800FAD700F000F049EF05F0540E0F6E010E13
:10091800106ECCEC18F007EF05F0540E156E520E61
:10092800166EFF0E176E010E186E010E196ECAECC8
:1009380015F0540E156E440E166EFF0E176E020E4D
:10094800186E010E196ECAEC15F0540E156EBD0E18
:10095800166EFF0E176E030E186E010E196ECAEC96
:1009680015F0000E4D6E000E4C6E7AEC1AF0456EC6
:1009780045504C6E4D6AFC0E4C184D10D8A4C7EF6C
:1009880004F0C9EF04F0DDEF04F001013651D8A4FA
:10099800D0EF04F0D2EF04F0DDEF04F0650E096E3D
:1009A800060EABEC16F0000E0101376F362B07EF81
:1009B80005F0FD0E4C184D10D8A4E5EF04F0E7EF54
:1009C80004F0FBEF04F001013751D8A4EEEF04F076
:1009D800F0EF04F0FBEF04F0710E096E060EABECBD
:1009E80016F00101372B000E366F07EF05F0FE0EEB
:1009F8004C184D10D8A403EF05F005EF05F007EFEC
:100A080005F049EF05F001013851D8B40EEF05F0B3
:100A180010EF05F091EF04F049EF05F00D0E456E6B
:100A2800FC0EE82EFED7452EFCD7010E0101356FCE
:100A380049EF05F0540E0F6E010E106ECCEC18F055
:100A4800540E156EF50E166EFD0E176E010E186E0D
:100A5800010E196ECAEC15F049EF05F04F50FA0A6D
:100A6800D8B412EF05F0060AD8B48AEF03F0010AE9
:100A7800D8B495EF03F0030AD8B410EF04F0010AD4
:100A8800D8B489EF04F01EEF05F001013551D8B450
:100A980050EF05F052EF05F0D3EF02F012002E50A0
:100AA800800B376E2E502E24396E2DAE5EEF05F07A
:100AB80060EF05F061EF05F039803950D8B467EF81
:100AC80005F069EF05F07EEF05F03928D8A46FEF3F
:100AD80005F071EF05F079EF05F0000E2B6E000EB2
:100AE8002C6E000E2D6E000E2E6E2D8E000E2E6EAC
:100AF80086EF05F0000E2B6E000E2C6E000E2D6E8C
:100B0800000E2E6E3250800B386E37503818D8B41D
:100B180090EF05F092EF05F093EF05F0378C325027
:100B28003224386E31AE9BEF05F09DEF05F09EEF55
:100B380005F038803850D8B4A4EF05F0A6EF05F0DA
:100B4800BBEF05F03828D8A4ACEF05F0AEEF05F000
:100B5800B6EF05F0000E2F6E000E306E000E316EEF
:100B6800000E326E318E000E326EC3EF05F0000EAD
:100B78002F6E000E306E000E316E000E326E395040
:100B8800385CD8B0CAEF05F0CCEF05F0F3EF05F00C
:100B980037ACD1EF05F0D3EF05F0D5EF05F0800EB7
:100BA800371A39C03AF038C039F03AC038F02BC09B
:100BB8003AF02FC02BF03AC02FF02CC03AF030C0DA
:100BC8002CF03AC030F02DC03AF031C02DF03AC0C8
:100BD80031F02EC03AF032C02EF03AC032F0000E9A
:100BE8003A6E395038C033F0346A335E000E345AE6
:100BF80034BE08EF06F0345009E11A0E335CD8A071
:100C080008EF06F00AEF06F041EF06F02B502C1023
:100C18002D102E10D8A413EF06F016EF06F0010ED3
:100C280017EF06F0000E3A6E000E2B6E000E2C6EBB
:100C3800000E2D6E000E2E6E38C039F04AEF06F009
:100C48003AA029EF06F02BEF06F031EF06F0D89026
:100C58003A3001093A6E33EF06F0D8903A322BA0B9
:100C680038EF06F03AEF06F03BEF06F03A8E2E34F6
:100C78002E322D322C322B32392A3850395CD8A0FA
:100C880048EF06F04AEF06F024EF06F037BC4FEFC6
:100C980006F051EF06F091EF06F03950D8A457EF5F
:100CA80006F059EF06F063EF06F0000E2B6E000E0B
:100CB8002C6E000E2D6E000E2E6EB2EF07F02F5028
:100CC8002B2630502C2231502D2232502E222EA08D
:100CD80070EF06F072EF06F01EEF07F03AA077EF1C
:100CE80006F079EF06F07FEF06F0D8903A30010968
:100CF8003A6E81EF06F0D8903A322BA086EF06F0D4
:100D080088EF06F089EF06F03A8E2E342E322D3217
:100D18002C322B32392A1EEF07F02F502B5C305023
:100D28002C5831502D582E50800A336E3250800A7C
:100D38003358D8B0A2EF06F0A4EF06F0CFEF06F0D4
:100D48002B502F5C336E2C503058346E2D50315848
:100D5800356E2E503258366EFF0E33242B6EFF0E32
:100D680034202C6EFF0E35202D6EFF0E36202E6E91
:100D7800800E371A3A6C3A50D8A4C5EF06F0C7EF80
:100D880006F0D7EF06F0010E2B26000E2C222D229E
:100D98002E22D7EF06F02F502B5E30502C5A3150B0
:100DA8002D5A32502E5A2B502C102D102E10D8A4FC
:100DB800E0EF06F0E2EF06F017EF07F03A50D8A49C
:100DC800E8EF06F0EAEF06F017EF07F0000E2B6EDB
:100DD800000E2C6E000E2D6E000E2E6EB2EF07F078
:100DE800D8902B362C362D362E363AAEFEEF06F03E
:100DF80000EF07F001EF07F02B803AA006EF07F0AD
:100E080008EF07F00CEF07F0D8803A360EEF07F03E
:100E1800D8903A363950D8B414EF07F016EF07F0E7
:100E280017EF07F039062DAE1CEF07F01EEF07F09D
:100E3800F4EF06F0000E386E3AAE25EF07F027EF14
:100E480007F03FEF07F03AC033F07F0E3316D8B4FF
:100E580030EF07F032EF07F036EF07F0010E386E8B
:100E68003FEF07F02BA03BEF07F03DEF07F03FEF18
:100E780007F032EF07F03850D8B445EF07F047EFE6
:100E880007F072EF07F0010E2B26000E2C222D2200
:100E98002E222EA052EF07F054EF07F072EF07F062
:100EA8002BC033F02CC034F02DC035F02EC036F0F6
:100EB8003634363235323432333233C02BF034C024
:100EC8002CF035C02DF036C02EF03928D8B46FEF8D
:100ED80007F071EF07F072EF07F0392A3928D8B414
:100EE80078EF07F07AEF07F082EF07F03950D8A4CF
:100EF80080EF07F082EF07F094EF07F0000E2B6EFB
:100F0800000E2C6E000E2D6E000E2E6E3950D8A4D9
:100F180090EF07F092EF07F094EF07F0000E376EAE
:100F280039A099EF07F09BEF07F09EEF07F02D8EA1
:100F38009FEF07F02D9ED89039302E6E37AEA7EF71
:100F480007F0A9EF07F0AAEF07F02E8E2BC02BF0C1
:100F58002CC02CF02DC02DF02EC02EF012001550F4
:100F6800800B1E6E15501524246E14AEBEEF07F0CC
:100F7800C0EF07F0C1EF07F024802450D8B4C7EFC2
:100F880007F0C9EF07F0DCEF07F02428D8A4CFEF6B
:100F980007F0D1EF07F0D9EF07F0000E126E000E40
:100FA800136E000E146E000E156E148EE4EF07F02B
:100FB800000E126E000E136E000E146E000E156EEB
:100FC8001950800B1E1A195019241F6E18AEEFEF16
:100FD80007F0F1EF07F0F2EF07F01F801F50D8B4C9
:100FE800F8EF07F0FAEF07F00DEF08F01F28D8A484
:100FF80000EF08F002EF08F00AEF08F0000E166E96
:10100800000E176E000E186E000E196E188E15EF72
:1010180008F0000E166E000E176E000E186E000E09
:10102800196E1F50D8B41BEF08F01DEF08F025EF1C
:1010380008F02450D8A423EF08F025EF08F02FEF8C
:1010480008F0000E126E000E136E000E146E000EE5
:10105800156EC7EF09F018501202F3CF29F0F4CF3C
:101068002AF02950206E216A226A236A2A50256EA6
:10107800266A276A286A17501302F3CF29F0F4CF9B
:101088002AF029502026000E2122222223222A502B
:101098002526000E26222722282216501402F3CFD6
:1010A80029F0F4CF2AF029502026000E21222222EE
:1010B80023222A502526000E26222722282222C053
:1010C80023F021C022F020C021F0206A165013021C
:1010D800F3CF29F0F4CF2AF0295020262A502122D4
:1010E800000E2222000E232217501202F3CF29F0FD
:1010F800F4CF2AF0295020262A502122000E22223D
:10110800000E232222C023F021C022F020C021F0AB
:10111800206A16501202F3CF29F0F4CF2AF0295092
:1011280020262A502122000E2222000E23221850A7
:101138001302F3CF29F0F4CF2AF0295025262A509C
:101148002622000E2722000E282217501402F3CF61
:1011580029F0F4CF2AF0295025262A502622000EFD
:101168002722000E282218501402F3CF29F0F4CFBA
:101178002AF029501A6E2A501B6E1C6A1D6A1CC060
:101188001DF01BC01CF01AC01BF01A6A1A50252645
:101198001B5026221C5027221D50282220C01AF03E
:1011A80021C01BF022C01CF023C01DF0190EE2EF75
:1011B80008F0D8901D321C321B321A32E82EDDEFAF
:1011C80008F01A5025261B5026221C5027221D5095
:1011D800282222C023F021C022F020C021F0206A5A
:1011E8001F5024C01AF01B6A1A26000E1B22820EFA
:1011F8001A24296EFF0E1B202A6E18EF09F0D890CA
:10120800253626362736283623AE0DEF09F00FEFA0
:1012180009F010EF09F02580D890203621362236C3
:1012280023362906D8A02A0627AE1DEF09F01FEF9E
:1012380009F003EF09F0000E1F6E23AE26EF09F048
:1012480028EF09F04CEF09F0FF0E20141A6EFF0E7C
:1012580021141B6EFF0E22141C6E7F0E23141D6EAC
:101268001A501B101C101D10D8B43DEF09F03FEFA9
:1012780009F043EF09F0010E1F6E4CEF09F025A0AD
:1012880048EF09F04AEF09F04CEF09F03FEF09F099
:101298001F50D8B452EF09F054EF09F078EF09F075
:1012A800010E2526000E26222722282228A05FEFDD
:1012B80009F061EF09F078EF09F025C01AF026C0AF
:1012C8001BF027C01CF028C01DF01D341D321C3235
:1012D8001B321A321AC025F01BC026F01CC027F09A
:1012E8001DC028F0294A2A2A2ABE83EF09F02A506D
:1012F80008E12928D8A083EF09F085EF09F08FEFDE
:1013080009F0000E256E000E266E800E276E7F0EE9
:10131800286EBDEF09F02ABE9CEF09F02A5006E1BD
:101328002904D8B09AEF09F09CEF09F0A8EF09F06A
:10133800000E256E000E266E000E276E000E286E1B
:10134800000E1E6EBDEF09F029C024F0FF0E251611
:10135800FF0E26167F0E2716000E281624A0B7EFBC
:1013680009F0B9EF09F0BAEF09F0278ED8902430C8
:10137800286E1E50281225C012F026C013F027C070
:1013880014F028C015F012001550800B226E15506D
:101398001524296E14AED3EF09F0D5EF09F0D6EF76
:1013A80009F029802950D8B4DCEF09F0DEEF09F004
:1013B800F3EF09F02928D8A4E4EF09F0E6EF09F0E3
:1013C800EEEF09F0000E126E000E136E000E146E92
:1013D800000E156E148E000E156EFBEF09F0000E50
:1013E800126E000E136E000E146E000E156E19505C
:1013F800800B221A195019242A6E18AE06EF0AF02B
:1014080008EF0AF009EF0AF02A802A50D8B40FEF43
:101418000AF011EF0AF026EF0AF02A28D8A417EFED
:101428000AF019EF0AF021EF0AF0000E166E000E0E
:10143800176E000E186E000E196E188E000E196EBB
:101448002EEF0AF0000E166E000E176E000E186EC4
:10145800000E196E1650171018101910D8A437EF6F
:101468000AF039EF0AF051EF0AF0000E126E000E82
:10147800136E000E146E000E156E800E14127F0E81
:1014880015122250151212C012F013C013F014C016
:1014980014F015C015F094EF0BF02950D8A457EFAD
:1014A8000AF059EF0AF063EF0AF0000E126E000E10
:1014B800136E000E146E000E156E94EF0BF02A508A
:1014C80029C01AF01B6A1A5E000E1B5A7F0E1A24D6
:1014D800236E000E1B20246E12C01EF013C01FF0D6
:1014E80014C020F015C021F0000E126E000E136E0D
:1014F800000E146E000E156E000E256E000E266E80
:10150800000E276E000E286E000E2A6EC4EF0AF039
:101518002A50D8B492EF0AF094EF0AF0ABEF0AF031
:10152800D8901E361F3620362136D89012361336FC
:101538001436153628AEA3EF0AF0A5EF0AF0A6EF89
:101548000AF01280D89025362636273628361650C7
:101558001E5C17501F581850205819502158D8A0F1
:10156800B8EF0AF0BAEF0AF0C3EF0AF0288C165069
:101578001E5E17501F5A1850205A1950215A2A2AED
:10158800190E2A64CAEF0AF0CCEF0AF08CEF0AF0C1
:101598001E501F1020102110D8B4D5EF0AF0D7EF35
:1015A8000AF0EFEF0AF02580EFEF0AF0D890123634
:1015B80013361436153628AEE4EF0AF0E6EF0AF0D3
:1015C800E7EF0AF01280D8902536263627362836D7
:1015D8002306D8A0240614AEF4EF0AF0F6EF0AF0BA
:1015E800DAEF0AF0000E2A6E28AEFDEF0AF0FFEFE0
:1015F8000AF023EF0BF0FF0E25141A6EFF0E2614C7
:101608001B6EFF0E27141C6E7F0E28141D6E1A50B9
:101618001B101C101D10D8B414EF0BF016EF0BF0B4
:101628001AEF0BF0010E2A6E23EF0BF012A01FEF3A
:101638000BF021EF0BF023EF0BF016EF0BF02A5015
:10164800D8B429EF0BF02BEF0BF04FEF0BF0010E96
:101658001226000E13221422152215A036EF0BF0C5
:1016680038EF0BF04FEF0BF012C01AF013C01BF05D
:1016780014C01CF015C01DF01D341D321C321B3265
:101688001A321AC012F01BC013F01CC014F01DC08F
:1016980015F0234A242A24BE5AEF0BF0245008E1FF
:1016A8002328D8A05AEF0BF05CEF0BF067EF0BF094
:1016B800000E246E2368000E126E000E136E000ECC
:1016C800146E000E156E24BE74EF0BF0245006E164
:1016D8002304D8B072EF0BF074EF0BF082EF0BF02D
:1016E800000E246E000E236E000E126E000E136E96
:1016F800000E146E000E156E000E226E23C029F027
:1017080029A089EF0BF08BEF0BF08EEF0BF0148E06
:101718008FEF0BF0149ED8902930156E45EF0AF024
:101728001200000E0101366F000E356F000E376F84
:10173800000E386F000E396F37EF0DF0540E0F6E34
:10174800010E106ECCEC18F0540E156EA10E166E2C
:10175800FE0E176E010E186E010E196ECAEC15F00A
:10176800540E156EDB0E166EFF0E176E020E186EF7
:10177800010E196ECAEC15F0540E156EBD0E166EDC
:10178800FF0E176E030E186E010E196ECAEC15F0D7
:101798007AEC1AF04F6E28EF0DF0000E4D6E000E29
:1017A8004C6E540E0F6E010E106ECCEC18F0540EE9
:1017B800156E250E166EFF0E176E010E186E010EB1
:1017C800196ECAEC15F0020EE1EC19F004C04CF0E9
:1017D80005C04DF0F60E166E280E176E9C0E186E8C
:1017E800400E196E4CC004F04DC005F0066A076A39
:1017F800000E2AEC10F004C012F005C013F006C069
:1018080014F007C015F0B3EC07F012C03BF013C09A
:101818003CF014C03DF015C03EF057EC13F03BC04F
:101828004AF03CC04BF04AC004F04BC005F0020E31
:10183800076E6C0E066E2DEC17F004C04AF005C05A
:101848004BF0390E366E010E376E4AC038F04BC079
:1018580039F06EEC18F0540E156E390E166E010E36
:10186800176E010E186E100E196ECAEC15F01F0EC9
:10187800466E710E456E1E0EE82EFED7452EFCD71D
:10188800462EFAD700F000F037EF0DF0540E0F6E29
:10189800010E106ECCEC18F0FDEF0CF0540E156E26
:1018A800520E166EFF0E176E010E186E010E196E8F
:1018B800CAEC15F0540E156E440E166EFF0E176E18
:1018C800020E186E010E196ECAEC15F0540E156E44
:1018D800BD0E166EFF0E176E030E186E010E196EF2
:1018E800CAEC15F0000E4D6E000E4C6E7AEC1AF034
:1018F800456E45504C6E4D6AFC0E4C184D10D8A4E0
:1019080088EF0CF08AEF0CF0B7EF0CF001013751BB
:10191800D8A491EF0CF093EF0CF0B7EF0CF0030E96
:10192800466E8C0E456EEF0EE82EFED7452EFCD780
:10193800462EFAD700008A8AC80E00F000F0E82E7A
:10194800FCD78A9A0B0E466E260E456E5E0EE82E62
:10195800FED7452EFCD7462EFAD7000E0101386F68
:10196800372BFDEF0CF0FD0E4C184D10D8A4BFEF2F
:101978000CF0C1EF0CF0F1EF0CF001013851D8A4D4
:10198800C8EF0CF0CAEF0CF0F1EF0CF0030E466E46
:101998008C0E456EEF0EE82EFED7452EFCD7462E50
:1019A800FAD700008A8A1C0E456E440EE82EFED730
:1019B800452EFCD700008A9A0B0E466E260E456E01
:1019C8005E0EE82EFED7452EFCD7462EFAD701012B
:1019D800382B000E376FFDEF0CF0FE0E4C184D1033
:1019E800D8A4F9EF0CF0FBEF0CF0FDEF0CF037EF9B
:1019F8000DF001013551D8B404EF0DF006EF0DF0EC
:101A080052EF0CF037EF0DF00D0E456EFC0EE82E80
:101A1800FED7452EFCD7010E0101366F37EF0DF0CA
:101A2800540E0F6E010E106ECCEC18F0540E156E9D
:101A3800F50E166EFD0E176E010E186E010E196E5C
:101A4800CAEC15F037EF0DF04F50FA0AD8B408EF8A
:101A58000DF0060AD8B4D1EF0BF0010AD8B44AEF5A
:101A68000CF014EF0DF001013651D8B43EEF0DF033
:101A780040EF0DF0A2EF0BF01200E6EC1AF0939A8B
:101A8800A00E0001D06F860ED16F010ED26F000E2E
:101A9800D36FD681080ED46FD695D683D00E476EF5
:101AA800B5EC11F06F0E096E060EABEC16F0020ED7
:101AB800496E040E486EBA0EE82EFED7482EFCD7A3
:101AC800492EFAD700F000F0540E126EDAEC13F03B
:101AD800540E156E6A0E166EFF0E176E020E186EF5
:101AE800050E196ECAEC15F00B0E496E260E486EDF
:101AF8005E0EE82EFED7482EFCD7492EFAD7540E94
:101B08000F6E010E106ECCEC18F004EC11F0540EB0
:101B1800156E140E166EFF0E176E020E186E010E5D
:101B2800196ECAEC15F0150E496E4B0E486EBE0EB6
:101B3800E82EFED7482EFCD7492EFAD700F000F041
:101B4800540E0F6E010E106ECCEC18F047EC0FF02F
:101B5800540E0F6E010E106ECCEC18F0540E156E6C
:101B68008B0E166EFF0E176E010E186E010E196E93
:101B7800CAEC15F0540E156E950E166EFF0E176E04
:101B8800020E186E010E196ECAEC15F0540E156E81
:101B98009F0E166EFF0E176E030E186E010E196E4D
:101BA800CAEC15F0540E156EC70E166EFF0E176EA2
:101BB800040E186E010E196ECAEC15F07AEC1AF0C4
:101BC8004F6E3DEF0EF0540E0F6E010E106ECCEC02
:101BD80018F0540E156E5F0E166EFE0E176E010E7F
:101BE800186E010E196ECAEC15F02DEC00F0ACEF72
:101BF8000DF0540E0F6E010E106ECCEC18F0540E52
:101C0800156E300E166EFE0E176E010E186E010E52
:101C1800196ECAEC15F0C6EC02F0ACEF0DF0540EDC
:101C28000F6E010E106ECCEC18F0540E156EEF0E00
:101C3800166EFE0E176E010E186E010E196ECAECA6
:101C480015F095EC0BF0ACEF0DF0540E0F6E010E85
:101C5800106ECCEC18F0540E156E130E166EFE0EA8
:101C6800176E010E186E010E196ECAEC15F0ACEF66
:101C78000DF04F50FC0AD8B4E7EF0DF0010AD8B4C4
:101C8800FDEF0DF0030AD8B413EF0EF0010AD8B433
:101C9800AAEF0DF029EF0EF02BEF00F00F50D96EE0
:101CA800DA6ADECFF6FFDDCFF7FFF86A0800F550F5
:101CB800250AD8A462EF0EF064EF0EF034EF0FF0AF
:101CC8000F50D96EDA6ADE2A000EDD22000E0001FE
:101CD8008F6F000E8E6F8EC0C2F0906991690F50A1
:101CE800D96EDA6ADECF14F0DDCF15F014C0F6FF36
:101CF80015C0F7FFF86A0800F550640AD8B487EFF2
:101D08000EF089EF0EF098EF0EF014C0F6FF15C034
:101D1800F7FFF86A0800F550690AD8A496EF0EF0A4
:101D280098EF0EF02CEF0FF01050D96EDA6A020E11
:101D3800DF26DF5CD96EDA6ADECF16F0DECF17F069
:101D4800010E1424116E000E1520126E0F50D96E5C
:101D5800DA6A11C0DEFF12C0DDFF200E1A6E17BE50
:101D6800B8EF0EF0BBEF0EF0010EBCEF0EF0000E58
:101D7800136E1A06000E1A24D96EDA6A010EDA22D8
:101D880016C004F017C005F0000E076E0A0E066EA6
:101D980072EC15F004C00AF005C00BF01AEC1AF04A
:101DA8000A50300FDF6E16C004F017C005F0000EA1
:101DB800076E0A0E066EB3EC14F004C016F005C0E8
:101DC80017F016501710D8B4ECEF0EF0EEEF0EF037
:101DD800F6EF0EF01A50D8A4F4EF0EF0F6EF0EF06E
:101DE800BDEF0EF01A50D8B4FCEF0EF0FEEF0EF077
:101DF80021EF0FF01350D8B404EF0FF006EF0FF0F7
:101E080021EF0FF01A06000E1A24D96EDA6A010EB5
:101E1800DA222D0EDF6E21EF0FF0000E1A24D96E94
:101E2800DA6A010EDA22DF50116E1150046E056A6B
:101E38000EC006F015EC15F01A2A200E1A18D8A4B0
:101E480028EF0FF02AEF0FF011EF0FF046EF0FF029
:101E58000F50D96EDA6ADE2A000EDD2246EF0FF047
:101E68000F50D96EDA6ADECFF6FFDDCFF7FFF86ADA
:101E78000800F550046E056A0EC006F015EC15F062
:101E88002CEF0FF01200540E0F6E010E106ECCECFA
:101E980018F0000E4E6E1FEF10F0540E156E5F0E08
:101EA800166EFF0E176E010E186E050E196ECAEC2F
:101EB80015F0540E156E350E166EFF0E176E020EC7
:101EC800186E020E196ECAEC15F0540E156E8C0EB3
:101ED800166EFE0E176E030E186E020E196ECAEC01
:101EE80015F07AEC1AF04E6EFC0E4E18D8A47FEF5F
:101EF8000FF081EF0FF083EF0FF027EF10F0FD0EDA
:101F08004E18D8A48AEF0FF08CEF0FF01FEF10F0E7
:101F1800540E0F6E010E106ECCEC18F0D70E046E36
:101F2800056A000E076E200E066E000E096E050E7D
:101F3800086EFEEC19F004EC11F0000E516E540E10
:101F48000F6E010E106ECCEC18F0540E156E760E56
:101F5800166EFE0E176E010E186E010E196ECAEC83
:101F680015F0D70E046E056A000E076E200E066E79
:101F7800000E096E050E086EFEEC19F0000E516E8B
:101F8800040E5164CAEF0FF0CCEF0FF0CEEF0FF054
:101F9800EBEF0FF0200E5124D96EDA6A010EDA2227
:101FA8007AEC1AF0DF6E5150D70FD96EDA6A2A0E22
:101FB800DF6E540E156E2A0E166E020E176E5150F5
:101FC800100F186EC3EC19F0512AC4EF0FF0000E71
:101FD800516E540E0F6E010E106ECCEC18F0000E00
:101FE800516E040E5164FBEF0FF0FDEF0FF0FFEFA1
:101FF8000FF00EEF10F0200E5124D96EDA6A010EA0
:10200800DA225150F90FE16EE26ADFCFE7FF512A79
:10201800F5EF0FF0D70E046E056A000E076E200E5E
:10202800066E000E096E050E086EFEEC19F004EC43
:1020380011F01FEF10F04E50D8B425EF10F027EF35
:1020480010F051EF0FF0000E4E6E12000C6E0C5097
:10205800D8B431EF10F033EF10F055EF10F007BEA1
:102068003AEF10F038EF10F055EF10F004C008F018
:1020780005C009F006C00AF007C00BF0081E091ECB
:102088000A1E0B1E082A000E09220A220B2208C06B
:102098000EF009C00FF00AC010F00BC011F05DEF90
:1020A80010F004C00EF005C00FF006C010F007C015
:1020B80011F00450051006100710D8A466EF10F0B0
:1020C80068EF10F072EF10F0000E046E000E056E4F
:1020D800000E066E000E076E03EF11F0960E0D6EE1
:1020E8007CEF10F00D2AD890113210320F320E32D8
:1020F800000E0E14086E000E0F14096E000E101458
:102108000A6EFE0E11140B6E085009100A100B10FF
:10211800D8A491EF10F093EF10F076EF10F0A1EF44
:1021280010F00D2A010E0E26000E0F221022112289
:10213800D890113210320F320E32000E0E14086E83
:10214800000E0F14096E000E10140A6EFF0E111403
:102158000B6E085009100A100B10D8A4B6EF10F037
:10216800B8EF10F095EF10F0C0EF10F00D06D89012
:102178000E360F361036113610BEC5EF10F0C7EF09
:1021880010F0CFEF10F0020E0D60CDEF10F0CFEF92
:1021980010F0BAEF10F00DB0D4EF10F0D6EF10F049
:1021A800D7EF10F0109ED8900D320DC008F0096AD4
:1021B8000A6A0B6A08C00BF00A6A096A086A0850BA
:1021C8000E1209500F120A5010120B5011120C5017
:1021D800D8B4F1EF10F0F3EF10F0FBEF10F007BEFA
:1021E800FAEF10F0F8EF10F0FBEF10F0118E0EC0C0
:1021F80004F00FC005F010C006F011C007F012007F
:10220800000E506E540E156EDC0E166EFE0E176E16
:10221800010E186E010E196ECAEC15F0000E516E03
:10222800000E516E040E51641CEF11F01EEF11F0F8
:1022380020EF11F03BEF11F05150DC0FD96EDA6A44
:102248007AEC1AF0DF6E5150D70FD96EDA6A2A0E7F
:10225800DF6E540E156E2A0E166E020E176E515052
:10226800100F186EC3EC19F0512A16EF11F0DC0E9E
:10227800046EF90E056E050E066E67EC17F0000188
:10228800C66FC605D8A44BEF11F04DEF11F055EF0E
:1022980011F0540E0F6E010E106ECCEC18F0B4EF66
:1022A80011F0C72B540E0F6E010E106ECCEC18F007
:1022B800540E156EC90E166EFE0E176E020E186EAF
:1022C800010E196ECAEC15F01A0E1B6E5E0E1A6E10
:1022D8006E0EE82EFED71A2EFCD71B2EFAD700F06A
:1022E80000F0540E0F6E010E106ECCEC18F0030EB9
:1022F8000001C719D8A483EF11F085EF11F0ABEFF7
:1023080011F0540E0F6E010E106ECCEC18F0540E36
:10231800156E020E166EFF0E176E020E186E010E67
:10232800196ECAEC15F0660E1B6E760E1A6EC10E8B
:10233800E82EFED71A2EFCD71B2EFAD70000540E13
:102348000F6E010E106ECCEC18F0000E506E502A75
:10235800020E5064B2EF11F0B4EF11F006EF11F075
:1023680012004750D8A4BBEF11F0BDEF11F0BFEF3A
:1023780011F045EF12F0C69A949694984750D96E8A
:10238800DA6A060ED926DFA0CCEF11F0CEEF11F0F5
:10239800D4EF11F047C045F019EC16F00AEF12F02F
:1023A8004750D96EDA6A060ED926DFB0DEEF11F093
:1023B800E0EF11F00AEF12F04750D96EDA6A060E14
:1023C800D926DFA6EAEF11F0ECEF11F0EFEF11F0EC
:1023D800C58EFCEF11F04750D96EDA6A060ED92681
:1023E800DFB6F9EF11F0FBEF11F0FCEF11F0C59E2D
:1023F800C69EC69CC6884750D96EDA6A050ED9268D
:10240800DF50C86E47C004F0D9EC1AF031EC1BF06D
:102418004750D96EDA6A060ED926DFA216EF12F0F7
:1024280018EF12F01BEF12F0C78E28EF12F047508A
:10243800D96EDA6A060ED926DFB225EF12F027EF39
:1024480012F028EF12F0C79E4750D96EDA6A060ECE
:10245800D926DFA432EF12F034EF12F037EF12F082
:10246800C78C44EF12F04750D96EDA6A060ED926A7
:10247800DFB441EF12F043EF12F044EF12F0C79CC3
:10248800C68A1200000E0A6E0450D8B44EEF12F03D
:1024980050EF12F060EF12F00450D96EDA6ADF30B4
:1024A800E832E832070B056E080E05645EEF12F09D
:1024B80060EF12F0B7EF12F0010E0A6ECDEF12F0D6
:1024C8000450D96EDA6ADF30E832E832070B056E5D
:1024D800010E066E052A73EF12F0D8900636052E07
:1024E80071EF12F00650FF0A076E0450D96EDA6ACF
:1024F800DF50070B020DF350EB0FD96EDA6ADECF0F
:1025080008F0DDCF09F008C0D9FF09C0DAFF07508D
:10251800DF16CDEF12F00450D96EDA6ADF30E832F8
:10252800E832070B056E010E066E052A9EEF12F0C3
:10253800D8900636052E9CEF12F00450D96EDA6A50
:10254800DF50070B020DF350EB0FD96EDA6ADECFBE
:1025580007F0DDCF08F007C0D9FF08C0DAFF065042
:10256800DF12CDEF12F00450D96EDA6ADFBCBFEF8C
:1025780012F0C2EF12F0010EC3EF12F0000E000AC3
:10258800D8B464EF12F0010AD8B48FEF12F060EFFC
:1025980012F00A501200000E0B6E0450D8B4D7EF98
:1025A80012F0D9EF12F0E9EF12F00450D96EDA6A9E
:1025B800DF30E832E832070B066E070E0664E7EFF5
:1025C80012F0E9EF12F040EF13F0010E0B6E55EF29
:1025D80013F00450D96EDA6ADF30E832E832070BBC
:1025E800066E010E076E062AFCEF12F0D890073629
:1025F800062EFAEF12F00750FF0A086E0450D96E43
:10260800DA6ADF50070B020DF350E10FD96EDA6A70
:10261800DECF09F0DDCF0AF009C0D9FF0AC0DAFF22
:102628000850DF1655EF13F00450D96EDA6ADF3020
:10263800E832E832070B066E010E076E062A27EF0E
:1026480013F0D8900736062E25EF13F00450D96EF4
:10265800DA6ADF50070B020DF350E10FD96EDA6A20
:10266800DECF08F0DDCF09F008C0D9FF09C0DAFFD6
:102678000750DF1255EF13F00550066E076A075032
:10268800000AD8B44AEF13F0E9EF12F00650000A36
:10269800D8B4EDEF12F0010AD8B418EF13F0E9EF4F
:1026A80012F00B5012003D343E34446E4450D8A40E
:1026B80060EF13F062EF13F06CEF13F0000E3B6E57
:1026C800000E3C6E000E3D6E000E3E6ED9EF13F00C
:1026D8003BC03FF03CC040F03DC041F03EC042F03E
:1026E800200E7CEF13F0D8904232413240323F3214
:1026F800E82E77EF13F03F50436E3D8EFF0E3B16EA
:10270800FF0E3C16FF0E3D16000E3E16960E445E5A
:1027180044BE93EF13F091EF13F0A9EF13F0445078
:10272800800A970FD8B09BEF13F09DEF13F09FEF3F
:1027380013F062EF13F0D8903E323D323C323B3218
:10274800443E9FEF13F0C1EF13F01F0E4464AFEF48
:1027580013F0B1EF13F0B9EF13F062EF13F0D89064
:102768003B363C363D363E3644064450D8A4BFEF8F
:1027780013F0C1EF13F0B3EF13F04350D8B4C7EF21
:1027880013F0C9EF13F0D1EF13F03E1E3D1E3C1EAF
:102798003B6C000E3C223D223E223BC03BF03CC03D
:1027A8003CF03DC03DF03EC03EF01200000E146EFD
:1027B8001250D8A4E2EF13F0E4EF13F0E6EF13F0B1
:1027C80049EF14F01250050F046E46EC12F0156E26
:1027D8001250040F046E46EC12F0156E000E146EC3
:1027E80012501424046E46EC12F0142A030E1464DA
:1027F80000EF14F002EF14F0F4EF13F0340E136E40
:10280800F20EE82EFED7132EFCD712C00FF0380EAA
:10281800106ECCEC18F00D0E136EFC0EE82EFED7E1
:10282800132EFCD712C00FF0380E106ECCEC18F037
:10283800640EE82EFED712C00FF0380E106ECCECE6
:1028480018F012C00FF0010E106ECCEC18F012C088
:102858000FF0020E106ECCEC18F012C00FF0060E3E
:10286800106ECCEC18F012C00FF00C0E106ECCEC01
:1028780018F012C00FF0800E106ECCEC18F012C0D9
:102888000FF0280E106ECCEC18F01200000E0001AC
:10289800846F000E856F000E866F000E876F030E23
:1028A800E1EC19F004C084F005C085F00001866BE6
:1028B800876B875186110BE1400E845D5E0E85594A
:1028C800D8A069EF14F06BEF14F0A7EF14F06D0EB9
:1028D800096E060EABEC16F0270E1A6EF50EE82EF2
:1028E800FED71A2EFCD7000096EF14F0030EE1EC89
:1028F80019F004C084F005C085F00001866B876B71
:10290800540E0F6E010E106ECCEC18F0540E156EAE
:10291800480E166EFE0E176E010E186E010E196E19
:10292800CAEC15F000018751861109E1400E845D5B
:102938005E0E8559D8B0A3EF14F0A5EF14F07AEF26
:1029480014F0B2EF14F0540E0F6E010E106ECCECB2
:1029580018F06C0E096E060EABEC16F01200000EA5
:10296800096E07BEBCEF14F0BAEF14F0C2EF14F012
:10297800066C071ED8B0072A010E096E05BEC9EFFE
:1029880014F0C7EF14F0CFEF14F0046C051ED8B0A4
:10299800052A010E091A000E0B6E000E0A6E06506B
:1029A8000710D8B4DAEF14F0DCEF14F004EF15F0E8
:1029B800010E086EE4EF14F0D89006360736082AA0
:1029C80007AEE9EF14F0EBEF14F0E0EF14F0D89055
:1029D8000A360B360650045C07500558D8A0F7EFA6
:1029E80014F0F9EF14F0FEEF14F00650045E0750EF
:1029F800055A0A80D89007320632082EEBEF14F0F9
:102A08000950D8B40AEF15F00CEF15F010EF15F0D7
:102A18000A6C0B1ED8B00B2A0AC004F00BC005F0D4
:102A280012000650D8B41BEF15F01DEF15F025EF76
:102A380015F00650D8A423EF15F025EF15F02AEF6E
:102A480015F0045034EC1BF071EF15F00650D96EF8
:102A5800DA6A0A0ED926DE50DE10D8B436EF15F041
:102A680038EF15F051EF15F00650D96EDA6A0A0EF4
:102A7800D9260650E16EE26A030EE126DE50E65CD6
:102A8800E650800A0B6EDE50800A0B58D8B04FEF24
:102A980015F051EF15F071EF15F00650D96EDA6A9E
:102AA800030ED926DECF07F0DDCF08F00650D96E29
:102AB800DA6ADECF09F0DDCF0AF007500924D96EB3
:102AC80008500A20DA6E04C0DFFF0650D96EDA6AB1
:102AD800030ED926DE2A000EDD221200000E096E32
:102AE80005BE7BEF15F079EF15F081EF15F0046C5A
:102AF800051ED8B0052A010E096E07BE88EF15F02D
:102B080086EF15F08CEF15F0066C071ED8B0072A73
:102B180006500710D8B493EF15F095EF15F0B9EFFC
:102B280015F0010E086E9DEF15F0D89006360736A1
:102B3800082A07AEA2EF15F0A4EF15F099EF15F0EB
:102B48000650045C07500558D8A0ADEF15F0AFEF5C
:102B580015F0B3EF15F00650045E0750055AD890EB
:102B680007320632082EA4EF15F00950D8B4BFEF8B
:102B780015F0C1EF15F0C5EF15F0046C051ED8B0BF
:102B8800052A04C004F005C005F012001550D8B499
:102B9800D0EF15F0D2EF15F0DBEF15F01650171047
:102BA800D8A4D9EF15F0DBEF15F0DDEF15F018EF2D
:102BB80016F015C012F018C013F019C014F0F1EC9B
:102BC80016F0FFEF15F015C00FF016C0F6FF17C08E
:102BD800F7FF000EF86E0F0EF76403D00800F550EB
:102BE80005D0F6CFE9FFF7CFEAFFEF50106E9DEC66
:102BF80018F0164A172A16C0F6FF17C0F7FF000E7E
:102C0800F86E0F0EF76403D00800F55005D0F6CF24
:102C1800E9FFF7CFEAFFEF500009D8A416EF16F046
:102C280018EF16F0E7EF15F012004550D96EDA6A82
:102C3800040ED926DF50466EC6504618F00B4618CB
:102C4800C66E000E2F6E000E306E800E316EBF0EF7
:102C5800326E4550D96EDA6ADECF04F0DECF05F069
:102C6800DECF06F0DECF07F0000E2AEC10F004C02D
:102C780016F005C017F006C018F007C019F0000ECE
:102C8800126E240E136EF40E146E490E156EC8ECF7
:102C980009F012C02BF013C02CF014C02DF015C091
:102CA8002EF053EC05F02BC03BF02CC03CF02DC0AF
:102CB8003DF02EC03EF057EC13F03B50C86E1200AA
:102CC800280EF66E360EF76E000EF86E01EE25F041
:102CD80010EE0AF00900F5CFEEFFE550E150FAE1F9
:102CE800920EF66E350EF76E000EF86E00EEE1F0FD
:102CF80010EE1FF00900F5CFEEFFE550E150FAE1C4
:102D08005A0EF66E360EF76E000EF86E00EE54F0A0
:102D180010EE07F00900F5CFEEFFE550E150FAE1BB
:102D280001EE00F0250EEE6AE806FDE100EE60F027
:102D3800810EEE6AE806FDE100EE4AF00A0EEE6A40
:102D4800E806FDE15B905B92000141EF0DF00C6E2F
:102D5800D00E046E83EC19F0020E0B6EE10E0A6EB3
:102D6800820EE82EFED70A2EFCD70B2EFAD7D00EED
:102D7800046E0CC005F0530E066E07EC18F0020E38
:102D88000B6EE10E0A6E820EE82EFED70A2EFCD7D5
:102D98000B2EFAD7D00E046E09C005F0530E066E3E
:102DA80007EC18F0020E0B6EE10E0A6E820EE82E8A
:102DB800FED70A2EFCD70B2EFAD7D00E046E63EC82
:102DC80019F0020E0B6EE10E0A6E820EE82EFED787
:102DD8000A2EFCD70B2EFAD71200140618EF17F09C
:102DE80012C00FF01450800F106ECCEC18F02BEFBF
:102DF80017F012C00FF01450C00F106ECCEC18F082
:102E08002BEF17F012C00FF01450940F106ECCEC8B
:102E180018F02BEF17F012C00FF01450D40F106EEB
:102E2800CCEC18F02BEF17F01350010AD8B4F4EFDC
:102E380016F0030AD8B4FDEF16F0010AD8B406EF6D
:102E480017F0070AD8B40FEF17F02BEF17F0000EA2
:102E58001200000E0A6E000E096E06500710D8B454
:102E680038EF17F03AEF17F062EF17F0010E086E1F
:102E780042EF17F0D89006360736082A07AE47EF14
:102E880017F049EF17F03EEF17F0D89009360A36D9
:102E98000650045C07500558D8A055EF17F057EFB7
:102EA80017F05CEF17F00650045E0750055A0980CA
:102EB800D89007320632082E49EF17F009C004F0FF
:102EC8000AC005F012000450D8B46DEF17F06FEF88
:102ED80017F077EF17F00550D8A475EF17F077EFD4
:102EE80017F07AEF17F0000E9CEF17F0000E096E3E
:102EF80092EF17F005500924D96EDA6A04500924B4
:102F0800E16EE26ADE50E618D8B48DEF17F08FEF65
:102F180017F091EF17F077EF17F0092A0650095CC0
:102F2800D8A099EF17F09BEF17F07EEF17F0010E7E
:102F380012000C50D8A4A3EF17F0A5EF17F0A7EFD5
:102F480017F0D1EF17F0CCC00EF00C50D96EDA6A3A
:102F5800DF500F0B0D6E0E500D18F80B0D180E6E7E
:102F68000C50D96EDA6ADF38070B0D6E0D460D4628
:102F78000D460E500D18C70B0D180E6E0E9C0C50FA
:102F8800D96EDA6ADFAE02D00E8E01D00E9E0E0E1A
:102F9800046E010E056ECFEC12F012000C50D8A48E
:102FA800D8EF17F0DAEF17F0DCEF17F006EF18F0AC
:102FB800CBC00EF00C50D96EDA6ADF500F0B0D6ED5
:102FC8000E500D18F80B0D180E6E0C50D96EDA6AEB
:102FD800DF38070B0D6E0D460D460D460E500D18C9
:102FE800C70B0D180E6E0E9C0C50D96EDA6ADFAE48
:102FF80002D00E8E01D00E9E0E0E046E000E056ECF
:10300800CFEC12F012000450D8B40DEF18F00FEF07
:1030180018F017EF18F00650D8A415EF18F017EFAE
:1030280018F01BEF18F0010E086E39EF18F005C004
:10303800C9FF0D0E076EFC0EE82EFED7072EFCD733
:103048009E96C5BC2AEF18F02CEF18F032EF18F056
:103058000650D96EDA6ADF6A37EF18F00650D96E73
:10306800DA6A010EDF6E000E086E085012000B506F
:10307800D8A441EF18F043EF18F045EF18F06DEFC2
:1030880018F0CDC00DF00B50D96EDA6ADF500F0B77
:103098000C6E0D500C18F80B0C180D6E0B50D96EE9
:1030A800DA6ADF38070B0C6E0C460C460C460D50DE
:1030B8000C18C70B0C180D6E0D9C0B50D96EDA6AE4
:1030C800DFAE02D00D8E01D00D9E0D0E046E46ECC3
:1030D80012F0120036503710D8A475EF18F077EFB9
:1030E80018F079EF18F09CEF18F036C004F037C0EC
:1030F80005F0000E076E200E066E000E096E050E16
:10310800086EFEEC19F020EE05F03650D92637503F
:10311800DA22DF6A36C021F037C022F0FB0E236EB8
:10312800FF0E246E38C025F039C026F043EC19F0A4
:1031380012000F50D8A4A3EF18F0A5EF18F0A9EFCC
:1031480018F0010E116ECAEF18F00F50050F046E3B
:10315800010E056ECFEC12F0116E0FC00CF0103896
:103168000F0B0D6EFBEC18F0116E0FC00CF08FEC0E
:103178001AF0116E0FC00CF010C00DF0FBEC18F037
:10318800116E0FC00CF08FEC1AF0116E1150120076
:103198000F50D8A4D2EF18F0D4EF18F0D8EF18F0E9
:1031A800010E116EF9EF18F00F50050F046E000EA6
:1031B800056ECFEC12F0116E0FC00CF010380F0B2B
:1031C8000D6EFBEC18F0116E0FC00CF08FEC1AF0BE
:1031D800116E0FC00CF010C00DF0FBEC18F0116E62
:1031E8000FC00CF08FEC1AF0116E115012000CC0C9
:1031F80004F00D50010B056ECFEC12F00C28046E94
:10320800D8900D30010B056ECFEC12F00C50020F68
:10321800046E0D40E8423F0B010B056ECFEC12F037
:103228000C50030F046E0D38E8461F0B010B056E9A
:10323800CFEC12F00E6E0E5012001CC01FF01DC015
:1032480020F02FEF19F01BC00EF01F0E0F6E1EC0DE
:1032580010F052EC0EF01FC0F6FF20C0F7FFF86A1E
:103268000800F5500009D8A43CEF19F03EEF19F01A
:1032780027EF19F0000E1C6E000E1B6E1200250EB3
:10328800296E21C02AF022C02BF0000E2E6E000EEF
:103298002D6E000E356E000E346E2A0E1B6E23C086
:1032A8001CF024C01DF0290E1E6E21EC19F02D50C3
:1032B8002124D96E2E502220DA6EDF6A12000450C3
:1032C800D8A469EF19F06BEF19F06FEF19F0010E40
:1032D800056E81EF19F0C584C5B475EF19F077EF65
:1032E80019F070EF19F09E96C7A87DEF19F07FEFDF
:1032F80019F06BEF19F0000E056E0550120004501E
:10330800D8A489EF19F08BEF19F08FEF19F0010E9F
:10331800056EA1EF19F0C580C5B095EF19F097EFCC
:1033280019F090EF19F09E96C7A69DEF19F09FEF40
:1033380019F08BEF19F0000E056E05501200080EFB
:10334800B86E900EAB6E240EAC6EA00EAF6E010E72
:10335800B06E000E046E000E056E23EC1BF0000E1E
:10336800046E000E056E1EEC1BF0000E046E000EBF
:10337800056E28EC1BF0000E0001C96F12001550F5
:10338800D8A4C9EF19F0CBEF19F0CFEF19F0010E5F
:10339800196EDFEF19F015C012F017C013F018C03E
:1033A80014F0F1EC16F0196E15C00FF016C010F0FD
:1033B8009DEC18F0196E19501200086E08C006F03E
:1033C80006460646C2500618C30B0618C26EC280CF
:1033D800C282C2B2F2EF19F0F4EF19F0EDEF19F072
:1033E800C450076E066AC3500624046E000E0720F8
:1033F800056E120004C00AF005C00BF00CEF1AF0BD
:103408000AC0D9FF0BC0DAFF06C0DFFF0A4A0B2A41
:103418000806D8A00906082806E10928D8A417EF45
:103428001AF019EF1AF004EF1AF012000BBE1FEF92
:103438001AF021EF1AF027EF1AF00AC00AF00BC0B1
:103448000BF033EF1AF00AC00CF00BC00DF00C1E95
:103458000D1E0C4A0D2A0CC00AF00DC00BF012000C
:10346800000E8D6E000E8C6E000E896E000E8A6E38
:10347800000E8B6E070E966E92689368BB0E946E64
:1034880095687E681F0E7F6E000E7C6EF18E1200AE
:103498000C50D8A452EF1AF054EF1AF056EF1AF065
:1034A80062EF1AF00CC004F0000E056ECFEC12F0BB
:1034B8000C28046E000E056ECFEC12F012000C50B2
:1034C800D8A469EF1AF06BEF1AF06DEF1AF079EFE4
:1034D8001AF00CC004F0010E056ECFEC12F00C28A7
:1034E800046E000E056ECFEC12F012009EAA7FEF5C
:1034F8001AF081EF1AF07AEF1AF0000E0001C96F86
:10350800ABA289EF1AF08BEF1AF08DEF1AF0AB9897
:10351800AB88AE5012000C50040F046E010E056EFD
:10352800CFEC12F0030EE82EFED700000C50040F6B
:10353800046E000E056ECFEC12F00D6E0D501200E9
:103548000B50D8A4AAEF1AF0ACEF1AF0AEEF1AF0AD
:10355800B6EF1AF00BC004F046EC12F00B28046E1C
:1035680046EC12F01200F2A4BCEF1AF0BEEF1AF00B
:10357800C7EF1AF0F2AAC3EF1AF0C5EF1AF0C7EFB7
:103588001AF00DEC1BF05B921100890F8A0F8B0F5C
:103598008C0F8D0F920F930F940F950F960F0101BB
:0935A8000101FAFAFAFAFA333BC8
:1035B2000450D96EDA6A040ED926DF50056EC65061
:1035C2000518F00B0518C66E1200FCEC1AF034EC6C
:1035D2001AF019EC1BF0F1EC1AF0A3EC19F012003E
:1035E200000EC16E000EC06E000EC36E000EC46EE1
:1035F200010EC26E1200000EC76E080EC66E000EDD
:10360200C56E270EC86EC69A1200F2940001975139
:10361200D76E96C0D6FF1200F29400019751D76E72
:1036220096C0D6FF1200800F810F820F830F840F86
:10363200300ED36E000E9B6E120004C031F105C035
:1036420032F1120004C033F105C034F1120004C09B
:0F3652002FF105C030F11200939BA3AB838B02C5
:08366200948694881200120006
:10FD5400000000000000000000000000000000009F
:10FD6400000000000000000000000000000000008F
:10FD7400003738392F3435362A3132332D23303D8C
:10FD84002B00000000DCCFD1350000000000C015BE
:10FD94003F0000803F0000C03F70A5EC363BAAB88E
:10FDA4003F4F38763F3CAA38338CBEBF35007231A2
:10FDB4003F1872313F4CBB31330EEADDB555B38A7F
:10FDC40038610B36BBABAA2A3E42F1533E55326C26
:10FDD4003E05A38B3EABAAAA3EB76DDB3E9A9919AA
:10FDE4003F0000804B00AAB83FC623F6B800407617
:10FDF4003F20706C656173652043686F6F73652085
:10FE0400436F72726563742044657669636500208C
:10FE1400706C656173652043686F6F736520436F11
:10FE2400727265637420506C616365002057656C61
:10FE3400636F6D6520746F207365636F6E642072E9
:10FE44006F6F6D0020464952452E2E2E2E2E2E2EDB
:10FE54002E2E2E2E2E2E2E2E2E21002057656C6334
:10FE64006F6D6520746F20666972737420726F6F92
:10FE74006D00656E746572206E65772070617373B2
:10FE8400776F7264203A2000322D4368616E676593
:10FE94002050617373776F7264203A200020312DF3
:10FEA400726561642074656D7065726174757265E4
:10FEB4000020332D726561642074656D7065726114
:10FEC40074757265002057726F6E6720706173736A
:10FED400776F72642021200020456E746572207053
:10FEE400617373776F7264203A20002057656C63E6
:10FEF4006F6D6520746F20676172616765002057BC
:10FF04006169742031307320746F20747279210018
:10FF14002057656C636F6D6520486F6D652E2E21CB
:10FF2400002054656D7065726174757265203A20A5
:10FF340000312D436F6E74726F6C20486F6D6500D5
:10FF440020322D434C4F534520444F4F5200203113
:10FF54002D4F50454E20444F4F52002043686F6F41
:10FF64007365203A200057656C636F6D652E2E21F2
:10FF74000020322D4C45445F4F46460020322D462A
:10FF8400616E5F4F46460020312D524F4F4D203158
:10FF94000020322D524F4F4D20320020332D474147
:10FFA400524147450020312D4C45445F4F4E0020BF
:10FFB400312D46616E5F4F4E0020332D524554550E
:10FFC400524E0020342D52455455524E0020352DAA
:10FFD40052455455524E0020322D446F6F7220000A
:10FFE40020342D446F6F72200020322D6C65640024
:0BFFF40020312D46616E0025690000E1
:020000040030CA
:0E000000FF021F1EFF8B85FF0FC00FE00F4099
:00000001FF
