:0400000043EF00F0DA
:100008004C82FACF3DF0FBCF3EF0F2AC0EEF00F0A1
:1000180010EF00F03DEF00F0A0A615EF00F017EF8D
:1000280000F02DEF00F0A1A61CEF00F01EEF00F08D
:100038002DEF00F002D82BEF00F00500FA6E2C50DF
:10004800FD6E2D50FE6EF850FF6EFA5012003DEF17
:1000580000F09DA632EF00F034EF00F03DEF00F025
:100068009EA639EF00F03BEF00F03DEF00F01EEFE9
:1000780000F03EC0FBFF3DC0FAFF4C921100D7EFE5
:020088000AF07C
:101000000000000E456E3F50D8B409EF08F00BEF1A
:1010100008F01BEF08F03F50D96EDA6ADF30E83293
:10102000E832070B406E080E406419EF08F01BEF22
:1010300008F072EF08F0010E456E88EF08F03F509F
:10104000D96EDA6ADF30E832E832070B406E010E03
:10105000416E402A2EEF08F0D8904136402E2CEFFA
:1010600008F04150FF0A426E3F50D96EDA6ADF50F5
:10107000070B020DF350150FD96EDA6ADECF43F07D
:10108000DDCF44F043C0D9FF44C0DAFF4250DF1641
:1010900088EF08F03F50D96EDA6ADF30E832E83284
:1010A000070B406E010E416E402A59EF08F0D890B0
:1010B0004136402E57EF08F03F50D96EDA6ADF50C4
:1010C000070B020DF350150FD96EDA6ADECF42F02E
:1010D000DDCF43F042C0D9FF43C0DAFF4150DF12F9
:1010E00088EF08F03F50D96EDA6ADFBC7AEF08F07B
:1010F0007DEF08F0010E7EEF08F0000E000AD8B474
:101100001FEF08F0010AD8B44AEF08F01BEF08F00F
:1011100045501200000E466E3F50D8B492EF08F0D2
:1011200094EF08F0A4EF08F03F50D96EDA6ADF3090
:10113000E832E832070B416E070E4164A2EF08F077
:10114000A4EF08F0FBEF08F0010E466E10EF09F077
:101150003F50D96EDA6ADF30E832E832070B416E71
:10116000010E426E412AB7EF08F0D8904236412E68
:10117000B5EF08F04250FF0A436E3F50D96EDA6A6D
:10118000DF50070B020DF3500B0FD96EDA6ADECF7A
:1011900044F0DDCF45F044C0D9FF45C0DAFF4350ED
:1011A000DF1610EF09F03F50D96EDA6ADF30E8320F
:1011B000E832070B416E010E426E412AE2EF08F061
:1011C000D8904236412EE0EF08F03F50D96EDA6AEF
:1011D000DF50070B020DF3500B0FD96EDA6ADECF2A
:1011E00043F0DDCF44F043C0D9FF44C0DAFF4250A2
:1011F000DF1210EF09F04050416E426A4250000A7F
:10120000D8B405EF09F0A4EF08F04150000AD8B4B3
:10121000A8EF08F0010AD8B4D3EF08F0A4EF08F063
:10122000465012002DEC0CF0CFEC0BF00009D8B4B6
:101230001CEF09F01EEF09F030EF09F0C5EC0BF0E0
:101240000009D8B426EF09F028EF09F02CEF09F0D7
:10125000010E306E70EF09F0020E306E70EF09F083
:10126000C5EC0BF00009D8B438EF09F03AEF09F0FB
:101270003EEF09F0030E306E70EF09F0040E306E91
:1012800070EF09F067EC0BF0B1EC0BF00009D8B48B
:101290004CEF09F04EEF09F08DEF09F039EC0BF04F
:1012A0008DEF09F067EC0BF08DEF09F0B1EC0BF06E
:1012B0000009D8B45EEF09F060EF09F08DEF09F096
:1012C0004EEF09F0BBEC0BF00009D8B46AEF09F05F
:1012D0006CEF09F08DEF09F050EC0BF08DEF09F099
:1012E00030503B6E3C6A3C50000AD8B47AEF09F0AB
:1012F0008DEF09F03B50010AD8B442EF09F0030A20
:10130000D8B452EF09F0010AD8B456EF09F0070A31
:10131000D8B462EF09F08DEF09F02BEC0CF012005D
:10132000D9EC0BF0A8EC0AF01F0E466E7EEC0BF029
:10133000210E466E75EC0AF09692939893909394D2
:101340009396C9CF2EF0E6EF09F01F0E476E0BEC17
:101350000BF0000E2E6EA1EF09F01F0E476EF4EC9D
:101360000AF0A9EF09F0210E476E0BEC0AF0A9EF85
:1013700009F0210E476E40EC0AF0A9EF09F08D82CA
:10138000290EE82EFED700F000F08D92020E4B6E73
:10139000450E4A6EAA0EE82EFED74A2EFCD74B2EDB
:1013A000FAD7A9EF09F08D82040E4A6E670EE82E77
:1013B000FED74A2EFCD70000C5EF09F08A808A8448
:1013C000A9EF09F08A908A94A9EF09F02E50610ADA
:1013D000D8B4A5EF09F0030AD8B4ADEF09F0010ABB
:1013E000D8B4B3EF09F0070AD8B4B9EF09F0010A8D
:1013F000D8B4BFEF09F0090AD8B4E2EF09F0010A46
:10140000D8B4DEEF09F01C0AD8B4D3EF09F0A9EF85
:1014100009F043EF00F04750D8A411EF0AF013EFA2
:101420000AF015EF0AF03FEF0AF036C049F04750D6
:10143000D96EDA6ADF500F0B486E49504818F80B26
:101440004818496E4750D96EDA6ADF38070B486E84
:1014500048464846484649504818C70B4818496E00
:10146000499C4750D96EDA6ADFAE02D0498E01D06E
:10147000499E490E3F6E010E406E8AEC08F0120044
:101480004750D8A446EF0AF048EF0AF04AEF0AF0B6
:1014900074EF0AF035C049F04750D96EDA6ADF5070
:1014A0000F0B486E49504818F80B4818496E4750C2
:1014B000D96EDA6ADF38070B486E48464846484618
:1014C00049504818C70B4818496E499C4750D96E77
:1014D000DA6ADFAE02D0498E01D0499E490E3F6ED6
:1014E000000E406E8AEC08F012004650D8A47BEF44
:1014F0000AF07DEF0AF07FEF0AF0A7EF0AF037C09D
:1015000048F04650D96EDA6ADF500F0B476E4850EC
:101510004718F80B4718486E4650D96EDA6ADF381C
:10152000070B476E47464746474648504718C70B84
:101530004718486E489C4650D96EDA6ADFAE02D032
:10154000488E01D0489E480E3F6E01EC08F0120014
:10155000A2EC0BF0030EFEEC0BF07F0EF9EC0BF09F
:10156000240E3F6E120E406E08EC0CF0000E3F6E23
:10157000000E406E0DEC0CF02E0E3F6E180E406EFD
:10158000EFEC0BF03E0E3F6E180E406E03EC0CF0CD
:10159000460E3F6E180E406E12EC0CF0000E3F6EC1
:1015A000000E406EF4EC0BF029EC0CF01200220E51
:1015B000F66E170EF76E000EF86E00EE01F010EEEC
:1015C00021F00900F5CFEEFFE550E150FAE100EE21
:1015D00022F0180EEE6AE806FDE14C904C92000EE7
:1015E000F86E000190EF09F04750D8A4FAEF0AF026
:1015F000FCEF0AF0FEEF0AF00AEF0BF047C03FF0F5
:10160000000E406E8AEC08F047283F6E000E406ED8
:101610008AEC08F012004750D8A411EF0BF013EF3A
:101620000BF015EF0BF021EF0BF047C03FF0010E70
:10163000406E8AEC08F047283F6E000E406E8AEC40
:1016400008F01200000E8D6E000E8C6E000E896E7A
:10165000000E8A6E000E8B6E070E966E926893686F
:10166000946895687E681F0E7F6E000E7C6EF18E0A
:10167000120028502910D8B440EF0BF042EF0BF0C5
:101680004FEF0BF002D84FEF0BF00500FA6E285029
:10169000FD6E2950FE6EF850FF6EFA5012001200D7
:1016A0002A502B10D8B457EF0BF059EF0BF066EF20
:1016B0000BF002D866EF0BF00500FA6E2A50FD6EB3
:1016C0002B50FE6EF850FF6EFA501200120026509A
:1016D0002710D8B46EEF0BF070EF0BF07DEF0BF02E
:1016E00002D87DEF0BF00500FA6E2650FD6E2750F4
:1016F000FE6EF850FF6EFA50120012004650D8A449
:1017000084EF0BF086EF0BF088EF0BF090EF0BF00F
:1017100046C03FF001EC08F046283F6E01EC08F0AF
:101720001200800F810F820F830F840F890F8A0FA1
:101730008B0F8C0F8D0F920F930F940F950F960FA9
:03174000333B0335
:10174400C6BAA7EF0BF0A9EF0BF0B0EF0BF0000E49
:10175400C76E060EC612000EC56EC68A1200C7A05A
:10176400B6EF0BF0B9EF0BF0010EBAEF0BF0000E71
:101774001200C7B0C0EF0BF0C3EF0BF0010EC4EFC3
:101784000BF0000E1200C7B4CAEF0BF0CDEF0BF054
:10179400010ECEEF0BF0000E1200C7AAD4EF0BF02F
:1017A400D7EF0BF0010ED8EF0BF0000E120027EC70
:1017B4000CF0E2EC0BF022EC0BF0EAEC0BF0120074
:1017C400000EC76E060EC612000EC56EC69A120033
:1017D400300ED36E000E9B6E12003FC028F040C046
:1017E40029F012003FC022F040C023F012003F6EE7
:1017F4003F503F24776E12003F6E3F503F24C86E27
:1018040012003FC02AF040C02BF012003FC02CF061
:1018140040C02DF012003FC024F040C025F012005B
:101824003FC026F040C027F0120033501BEC0CF0F0
:1018340012003A6E3AC0C9FF12002FEC0CF0326E5F
:1018440012002FEC0CF0316E1200D09E12009D8617
:0E1854001200C68812009E961200C9501200A3
:020000040030CA
:0E000000FF081F1EFF8B85FF0FC00FE00F4093
:00000001FF
